{
  "contractName": "GPCP",
  "abi": [
    {
      "inputs": [
        {
          "internalType": "string",
          "name": "_name",
          "type": "string"
        },
        {
          "internalType": "string",
          "name": "_symbol",
          "type": "string"
        },
        {
          "internalType": "string",
          "name": "_initBaseURI",
          "type": "string"
        },
        {
          "internalType": "string",
          "name": "_initNotRevealedUri",
          "type": "string"
        }
      ],
      "stateMutability": "nonpayable",
      "type": "constructor"
    },
    {
      "anonymous": false,
      "inputs": [
        {
          "indexed": true,
          "internalType": "address",
          "name": "owner",
          "type": "address"
        },
        {
          "indexed": true,
          "internalType": "address",
          "name": "approved",
          "type": "address"
        },
        {
          "indexed": true,
          "internalType": "uint256",
          "name": "tokenId",
          "type": "uint256"
        }
      ],
      "name": "Approval",
      "type": "event"
    },
    {
      "anonymous": false,
      "inputs": [
        {
          "indexed": true,
          "internalType": "address",
          "name": "owner",
          "type": "address"
        },
        {
          "indexed": true,
          "internalType": "address",
          "name": "operator",
          "type": "address"
        },
        {
          "indexed": false,
          "internalType": "bool",
          "name": "approved",
          "type": "bool"
        }
      ],
      "name": "ApprovalForAll",
      "type": "event"
    },
    {
      "anonymous": false,
      "inputs": [
        {
          "indexed": true,
          "internalType": "address",
          "name": "previousOwner",
          "type": "address"
        },
        {
          "indexed": true,
          "internalType": "address",
          "name": "newOwner",
          "type": "address"
        }
      ],
      "name": "OwnershipTransferred",
      "type": "event"
    },
    {
      "anonymous": false,
      "inputs": [
        {
          "indexed": true,
          "internalType": "address",
          "name": "from",
          "type": "address"
        },
        {
          "indexed": true,
          "internalType": "address",
          "name": "to",
          "type": "address"
        },
        {
          "indexed": true,
          "internalType": "uint256",
          "name": "tokenId",
          "type": "uint256"
        }
      ],
      "name": "Transfer",
      "type": "event"
    },
    {
      "inputs": [
        {
          "internalType": "address",
          "name": "",
          "type": "address"
        }
      ],
      "name": "addressMintedBalance",
      "outputs": [
        {
          "internalType": "uint256",
          "name": "",
          "type": "uint256"
        }
      ],
      "stateMutability": "view",
      "type": "function"
    },
    {
      "inputs": [
        {
          "internalType": "address",
          "name": "to",
          "type": "address"
        },
        {
          "internalType": "uint256",
          "name": "tokenId",
          "type": "uint256"
        }
      ],
      "name": "approve",
      "outputs": [],
      "stateMutability": "nonpayable",
      "type": "function"
    },
    {
      "inputs": [
        {
          "internalType": "address",
          "name": "owner",
          "type": "address"
        }
      ],
      "name": "balanceOf",
      "outputs": [
        {
          "internalType": "uint256",
          "name": "",
          "type": "uint256"
        }
      ],
      "stateMutability": "view",
      "type": "function"
    },
    {
      "inputs": [],
      "name": "baseExtension",
      "outputs": [
        {
          "internalType": "string",
          "name": "",
          "type": "string"
        }
      ],
      "stateMutability": "view",
      "type": "function"
    },
    {
      "inputs": [],
      "name": "baseURI",
      "outputs": [
        {
          "internalType": "string",
          "name": "",
          "type": "string"
        }
      ],
      "stateMutability": "view",
      "type": "function"
    },
    {
      "inputs": [],
      "name": "cost",
      "outputs": [
        {
          "internalType": "uint256",
          "name": "",
          "type": "uint256"
        }
      ],
      "stateMutability": "view",
      "type": "function"
    },
    {
      "inputs": [
        {
          "internalType": "uint256",
          "name": "tokenId",
          "type": "uint256"
        }
      ],
      "name": "getApproved",
      "outputs": [
        {
          "internalType": "address",
          "name": "",
          "type": "address"
        }
      ],
      "stateMutability": "view",
      "type": "function"
    },
    {
      "inputs": [
        {
          "internalType": "address",
          "name": "owner",
          "type": "address"
        },
        {
          "internalType": "address",
          "name": "operator",
          "type": "address"
        }
      ],
      "name": "isApprovedForAll",
      "outputs": [
        {
          "internalType": "bool",
          "name": "",
          "type": "bool"
        }
      ],
      "stateMutability": "view",
      "type": "function"
    },
    {
      "inputs": [],
      "name": "maxMintAmount",
      "outputs": [
        {
          "internalType": "uint256",
          "name": "",
          "type": "uint256"
        }
      ],
      "stateMutability": "view",
      "type": "function"
    },
    {
      "inputs": [],
      "name": "maxSupply",
      "outputs": [
        {
          "internalType": "uint256",
          "name": "",
          "type": "uint256"
        }
      ],
      "stateMutability": "view",
      "type": "function"
    },
    {
      "inputs": [],
      "name": "name",
      "outputs": [
        {
          "internalType": "string",
          "name": "",
          "type": "string"
        }
      ],
      "stateMutability": "view",
      "type": "function"
    },
    {
      "inputs": [],
      "name": "notRevealedUri",
      "outputs": [
        {
          "internalType": "string",
          "name": "",
          "type": "string"
        }
      ],
      "stateMutability": "view",
      "type": "function"
    },
    {
      "inputs": [],
      "name": "onlyWhitelisted",
      "outputs": [
        {
          "internalType": "bool",
          "name": "",
          "type": "bool"
        }
      ],
      "stateMutability": "view",
      "type": "function"
    },
    {
      "inputs": [],
      "name": "owner",
      "outputs": [
        {
          "internalType": "address",
          "name": "",
          "type": "address"
        }
      ],
      "stateMutability": "view",
      "type": "function"
    },
    {
      "inputs": [
        {
          "internalType": "uint256",
          "name": "tokenId",
          "type": "uint256"
        }
      ],
      "name": "ownerOf",
      "outputs": [
        {
          "internalType": "address",
          "name": "",
          "type": "address"
        }
      ],
      "stateMutability": "view",
      "type": "function"
    },
    {
      "inputs": [],
      "name": "paused",
      "outputs": [
        {
          "internalType": "bool",
          "name": "",
          "type": "bool"
        }
      ],
      "stateMutability": "view",
      "type": "function"
    },
    {
      "inputs": [],
      "name": "renounceOwnership",
      "outputs": [],
      "stateMutability": "nonpayable",
      "type": "function"
    },
    {
      "inputs": [],
      "name": "revealed",
      "outputs": [
        {
          "internalType": "bool",
          "name": "",
          "type": "bool"
        }
      ],
      "stateMutability": "view",
      "type": "function"
    },
    {
      "inputs": [
        {
          "internalType": "address",
          "name": "from",
          "type": "address"
        },
        {
          "internalType": "address",
          "name": "to",
          "type": "address"
        },
        {
          "internalType": "uint256",
          "name": "tokenId",
          "type": "uint256"
        }
      ],
      "name": "safeTransferFrom",
      "outputs": [],
      "stateMutability": "nonpayable",
      "type": "function"
    },
    {
      "inputs": [
        {
          "internalType": "address",
          "name": "from",
          "type": "address"
        },
        {
          "internalType": "address",
          "name": "to",
          "type": "address"
        },
        {
          "internalType": "uint256",
          "name": "tokenId",
          "type": "uint256"
        },
        {
          "internalType": "bytes",
          "name": "_data",
          "type": "bytes"
        }
      ],
      "name": "safeTransferFrom",
      "outputs": [],
      "stateMutability": "nonpayable",
      "type": "function"
    },
    {
      "inputs": [
        {
          "internalType": "address",
          "name": "operator",
          "type": "address"
        },
        {
          "internalType": "bool",
          "name": "approved",
          "type": "bool"
        }
      ],
      "name": "setApprovalForAll",
      "outputs": [],
      "stateMutability": "nonpayable",
      "type": "function"
    },
    {
      "inputs": [
        {
          "internalType": "bytes4",
          "name": "interfaceId",
          "type": "bytes4"
        }
      ],
      "name": "supportsInterface",
      "outputs": [
        {
          "internalType": "bool",
          "name": "",
          "type": "bool"
        }
      ],
      "stateMutability": "view",
      "type": "function"
    },
    {
      "inputs": [],
      "name": "symbol",
      "outputs": [
        {
          "internalType": "string",
          "name": "",
          "type": "string"
        }
      ],
      "stateMutability": "view",
      "type": "function"
    },
    {
      "inputs": [
        {
          "internalType": "uint256",
          "name": "index",
          "type": "uint256"
        }
      ],
      "name": "tokenByIndex",
      "outputs": [
        {
          "internalType": "uint256",
          "name": "",
          "type": "uint256"
        }
      ],
      "stateMutability": "view",
      "type": "function"
    },
    {
      "inputs": [
        {
          "internalType": "address",
          "name": "owner",
          "type": "address"
        },
        {
          "internalType": "uint256",
          "name": "index",
          "type": "uint256"
        }
      ],
      "name": "tokenOfOwnerByIndex",
      "outputs": [
        {
          "internalType": "uint256",
          "name": "",
          "type": "uint256"
        }
      ],
      "stateMutability": "view",
      "type": "function"
    },
    {
      "inputs": [],
      "name": "totalSupply",
      "outputs": [
        {
          "internalType": "uint256",
          "name": "",
          "type": "uint256"
        }
      ],
      "stateMutability": "view",
      "type": "function"
    },
    {
      "inputs": [
        {
          "internalType": "address",
          "name": "from",
          "type": "address"
        },
        {
          "internalType": "address",
          "name": "to",
          "type": "address"
        },
        {
          "internalType": "uint256",
          "name": "tokenId",
          "type": "uint256"
        }
      ],
      "name": "transferFrom",
      "outputs": [],
      "stateMutability": "nonpayable",
      "type": "function"
    },
    {
      "inputs": [
        {
          "internalType": "address",
          "name": "newOwner",
          "type": "address"
        }
      ],
      "name": "transferOwnership",
      "outputs": [],
      "stateMutability": "nonpayable",
      "type": "function"
    },
    {
      "inputs": [
        {
          "internalType": "uint256",
          "name": "",
          "type": "uint256"
        }
      ],
      "name": "whitelistedAddresses",
      "outputs": [
        {
          "internalType": "address",
          "name": "",
          "type": "address"
        }
      ],
      "stateMutability": "view",
      "type": "function"
    },
    {
      "inputs": [
        {
          "internalType": "uint256",
          "name": "_mintAmount",
          "type": "uint256"
        }
      ],
      "name": "mint",
      "outputs": [],
      "stateMutability": "payable",
      "type": "function"
    },
    {
      "inputs": [
        {
          "internalType": "address",
          "name": "_user",
          "type": "address"
        }
      ],
      "name": "isWhitelisted",
      "outputs": [
        {
          "internalType": "bool",
          "name": "",
          "type": "bool"
        }
      ],
      "stateMutability": "view",
      "type": "function"
    },
    {
      "inputs": [
        {
          "internalType": "address",
          "name": "_owner",
          "type": "address"
        }
      ],
      "name": "walletOfOwner",
      "outputs": [
        {
          "internalType": "uint256[]",
          "name": "",
          "type": "uint256[]"
        }
      ],
      "stateMutability": "view",
      "type": "function"
    },
    {
      "inputs": [
        {
          "internalType": "uint256",
          "name": "tokenId",
          "type": "uint256"
        }
      ],
      "name": "tokenURI",
      "outputs": [
        {
          "internalType": "string",
          "name": "",
          "type": "string"
        }
      ],
      "stateMutability": "view",
      "type": "function"
    },
    {
      "inputs": [],
      "name": "reveal",
      "outputs": [],
      "stateMutability": "nonpayable",
      "type": "function"
    },
    {
      "inputs": [
        {
          "internalType": "uint256",
          "name": "_newCost",
          "type": "uint256"
        }
      ],
      "name": "setCost",
      "outputs": [],
      "stateMutability": "nonpayable",
      "type": "function"
    },
    {
      "inputs": [
        {
          "internalType": "uint256",
          "name": "_newmaxMintAmount",
          "type": "uint256"
        }
      ],
      "name": "setmaxMintAmount",
      "outputs": [],
      "stateMutability": "nonpayable",
      "type": "function"
    },
    {
      "inputs": [
        {
          "internalType": "string",
          "name": "_newBaseURI",
          "type": "string"
        }
      ],
      "name": "setBaseURI",
      "outputs": [],
      "stateMutability": "nonpayable",
      "type": "function"
    },
    {
      "inputs": [
        {
          "internalType": "string",
          "name": "_newBaseExtension",
          "type": "string"
        }
      ],
      "name": "setBaseExtension",
      "outputs": [],
      "stateMutability": "nonpayable",
      "type": "function"
    },
    {
      "inputs": [
        {
          "internalType": "string",
          "name": "_notRevealedURI",
          "type": "string"
        }
      ],
      "name": "setNotRevealedURI",
      "outputs": [],
      "stateMutability": "nonpayable",
      "type": "function"
    },
    {
      "inputs": [
        {
          "internalType": "bool",
          "name": "_state",
          "type": "bool"
        }
      ],
      "name": "pause",
      "outputs": [],
      "stateMutability": "nonpayable",
      "type": "function"
    },
    {
      "inputs": [
        {
          "internalType": "bool",
          "name": "_state",
          "type": "bool"
        }
      ],
      "name": "setOnlyWhitelisted",
      "outputs": [],
      "stateMutability": "nonpayable",
      "type": "function"
    },
    {
      "inputs": [
        {
          "internalType": "address[]",
          "name": "_users",
          "type": "address[]"
        }
      ],
      "name": "whitelistUsers",
      "outputs": [],
      "stateMutability": "nonpayable",
      "type": "function"
    },
    {
      "inputs": [],
      "name": "withdraw",
      "outputs": [],
      "stateMutability": "payable",
      "type": "function"
    }
  ],
  "bytecode": "0x60c06040526005608081905264173539b7b760d91b60a09081526200002891600c919062000892565b5066354a6ba7a18000600e55611388600f5560146010556011805462ffffff19166101001790553480156200005c57600080fd5b5060405162003580380380620035808339810160408190526200007f91620009fc565b8351849084906200009890600090602085019062000892565b508051620000ae90600190602084019062000892565b505050620000cb620000c5620000f860201b60201c565b620000fc565b620000d6826200014e565b620000e181620001b6565b620000ee33606462000216565b5050505062000c08565b3390565b600a80546001600160a01b038381166001600160a01b0319831681179093556040519116919082907f8be0079c531659141344cd1fd0a4f28419497f9722a3daafe3b4186f6b6457e090600090a35050565b600a546001600160a01b031633146200019d5760405162461bcd60e51b815260206004820181905260248201526000805160206200356083398151915260448201526064015b60405180910390fd5b8051620001b290600b90602084019062000892565b5050565b600a546001600160a01b03163314620002015760405162461bcd60e51b8152602060048201819052602482015260008051602062003560833981519152604482015260640162000194565b8051620001b290600d90602084019062000892565b620001b28282604051806020016040528060008152506200023860201b60201c565b620002448383620002b0565b62000253600084848462000406565b620002ab5760405162461bcd60e51b815260206004820152603260248201526000805160206200354083398151915260448201527131b2b4bb32b91034b6b83632b6b2b73a32b960711b606482015260840162000194565b505050565b6001600160a01b038216620003085760405162461bcd60e51b815260206004820181905260248201527f4552433732313a206d696e7420746f20746865207a65726f2061646472657373604482015260640162000194565b6000818152600260205260409020546001600160a01b0316156200036f5760405162461bcd60e51b815260206004820152601c60248201527f4552433732313a20746f6b656e20616c7265616479206d696e74656400000000604482015260640162000194565b6200037d600083836200056f565b6001600160a01b0382166000908152600360205260408120805460019290620003a890849062000b0b565b909155505060008181526002602052604080822080546001600160a01b0319166001600160a01b03861690811790915590518392907fddf252ad1be2c89b69c2b068fc378daa952ba7f163c4a11628f55a4df523b3ef908290a45050565b600062000427846001600160a01b03166200064b60201b620017001760201c565b156200056357604051630a85bd0160e11b81526001600160a01b0385169063150b7a02906200046190339089908890889060040162000ab5565b602060405180830381600087803b1580156200047c57600080fd5b505af1925050508015620004af575060408051601f3d908101601f19168201909252620004ac91810190620009c9565b60015b62000548573d808015620004e0576040519150601f19603f3d011682016040523d82523d6000602084013e620004e5565b606091505b508051620005405760405162461bcd60e51b815260206004820152603260248201526000805160206200354083398151915260448201527131b2b4bb32b91034b6b83632b6b2b73a32b960711b606482015260840162000194565b805181602001fd5b6001600160e01b031916630a85bd0160e11b14905062000567565b5060015b949350505050565b62000587838383620002ab60201b62000ae11760201c565b6001600160a01b038316620005e557620005df81600880546000838152600960205260408120829055600182018355919091527ff3f7a9fe364faab93b216da50a3214154f22a0a2b415b23a84c8169e8b636ee30155565b6200060b565b816001600160a01b0316836001600160a01b0316146200060b576200060b838262000651565b6001600160a01b0382166200062557620002ab81620006fe565b826001600160a01b0316826001600160a01b031614620002ab57620002ab8282620007b8565b3b151590565b600060016200066b846200080960201b62000f3f1760201c565b62000677919062000b26565b600083815260076020526040902054909150808214620006cb576001600160a01b03841660009081526006602090815260408083208584528252808320548484528184208190558352600790915290208190555b5060009182526007602090815260408084208490556001600160a01b039094168352600681528383209183525290812055565b600854600090620007129060019062000b26565b600083815260096020526040812054600880549394509092849081106200073d576200073d62000bdc565b90600052602060002001549050806008838154811062000761576200076162000bdc565b60009182526020808320909101929092558281526009909152604080822084905585825281205560088054806200079c576200079c62000bc6565b6001900381819060005260206000200160009055905550505050565b6000620007d0836200080960201b62000f3f1760201c565b6001600160a01b039093166000908152600660209081526040808320868452825280832085905593825260079052919091209190915550565b60006001600160a01b038216620008765760405162461bcd60e51b815260206004820152602a60248201527f4552433732313a2062616c616e636520717565727920666f7220746865207a65604482015269726f206164647265737360b01b606482015260840162000194565b506001600160a01b031660009081526003602052604090205490565b828054620008a09062000b73565b90600052602060002090601f016020900481019282620008c457600085556200090f565b82601f10620008df57805160ff19168380011785556200090f565b828001600101855582156200090f579182015b828111156200090f578251825591602001919060010190620008f2565b506200091d92915062000921565b5090565b5b808211156200091d576000815560010162000922565b600082601f8301126200094a57600080fd5b81516001600160401b038082111562000967576200096762000bf2565b604051601f8301601f19908116603f0116810190828211818310171562000992576200099262000bf2565b81604052838152866020858801011115620009ac57600080fd5b620009bf84602083016020890162000b40565b9695505050505050565b600060208284031215620009dc57600080fd5b81516001600160e01b031981168114620009f557600080fd5b9392505050565b6000806000806080858703121562000a1357600080fd5b84516001600160401b038082111562000a2b57600080fd5b62000a398883890162000938565b9550602087015191508082111562000a5057600080fd5b62000a5e8883890162000938565b9450604087015191508082111562000a7557600080fd5b62000a838883890162000938565b9350606087015191508082111562000a9a57600080fd5b5062000aa98782880162000938565b91505092959194509250565b600060018060a01b03808716835280861660208401525083604083015260806060830152825180608084015262000af48160a085016020870162000b40565b601f01601f19169190910160a00195945050505050565b6000821982111562000b215762000b2162000bb0565b500190565b60008282101562000b3b5762000b3b62000bb0565b500390565b60005b8381101562000b5d57818101518382015260200162000b43565b8381111562000b6d576000848401525b50505050565b600181811c9082168062000b8857607f821691505b6020821081141562000baa57634e487b7160e01b600052602260045260246000fd5b50919050565b634e487b7160e01b600052601160045260246000fd5b634e487b7160e01b600052603160045260246000fd5b634e487b7160e01b600052603260045260246000fd5b634e487b7160e01b600052604160045260246000fd5b6129288062000c186000396000f3fe60806040526004361061025c5760003560e01c80635c975abb11610144578063a475b5dd116100b6578063d5abeb011161007a578063d5abeb01146106cb578063da3ef23f146106e1578063e985e9c514610701578063edec5f271461074a578063f2c4ce1e1461076a578063f2fde38b1461078a57600080fd5b8063a475b5dd14610641578063b88d4fde14610656578063ba4e5c4914610676578063c668286214610696578063c87b56dd146106ab57600080fd5b80637f00c7a6116101085780637f00c7a61461059b5780638da5cb5b146105bb57806395d89b41146105d95780639c70b512146105ee578063a0712d681461060e578063a22cb4651461062157600080fd5b80635c975abb146105175780636352211e146105315780636c0360eb1461055157806370a0823114610566578063715018a61461058657600080fd5b806323b872dd116101dd57806342842e0e116101a157806342842e0e1461044b578063438b63001461046b57806344a0d68a146104985780634f6ccce7146104b857806351830227146104d857806355f804b3146104f757600080fd5b806323b872dd146103c35780632f745c59146103e35780633af32abf146104035780633c952764146104235780633ccfd60b1461044357600080fd5b8063095ea7b311610224578063095ea7b31461032757806313faede61461034757806318160ddd1461036b57806318cae26914610380578063239c70ae146103ad57600080fd5b806301ffc9a71461026157806302329a291461029657806306fdde03146102b8578063081812fc146102da578063081c8c4414610312575b600080fd5b34801561026d57600080fd5b5061028161027c36600461247e565b6107aa565b60405190151581526020015b60405180910390f35b3480156102a257600080fd5b506102b66102b1366004612463565b6107d5565b005b3480156102c457600080fd5b506102cd61081b565b60405161028d919061268b565b3480156102e657600080fd5b506102fa6102f5366004612501565b6108ad565b6040516001600160a01b03909116815260200161028d565b34801561031e57600080fd5b506102cd610942565b34801561033357600080fd5b506102b66103423660046123c4565b6109d0565b34801561035357600080fd5b5061035d600e5481565b60405190815260200161028d565b34801561037757600080fd5b5060085461035d565b34801561038c57600080fd5b5061035d61039b366004612294565b60136020526000908152604090205481565b3480156103b957600080fd5b5061035d60105481565b3480156103cf57600080fd5b506102b66103de3660046122e2565b610ae6565b3480156103ef57600080fd5b5061035d6103fe3660046123c4565b610b17565b34801561040f57600080fd5b5061028161041e366004612294565b610bad565b34801561042f57600080fd5b506102b661043e366004612463565b610c17565b6102b6610c5d565b34801561045757600080fd5b506102b66104663660046122e2565b610cfb565b34801561047757600080fd5b5061048b610486366004612294565b610d16565b60405161028d9190612647565b3480156104a457600080fd5b506102b66104b3366004612501565b610db8565b3480156104c457600080fd5b5061035d6104d3366004612501565b610de7565b3480156104e457600080fd5b5060115461028190610100900460ff1681565b34801561050357600080fd5b506102b66105123660046124b8565b610e7a565b34801561052357600080fd5b506011546102819060ff1681565b34801561053d57600080fd5b506102fa61054c366004612501565b610ebb565b34801561055d57600080fd5b506102cd610f32565b34801561057257600080fd5b5061035d610581366004612294565b610f3f565b34801561059257600080fd5b506102b6610fc6565b3480156105a757600080fd5b506102b66105b6366004612501565b610ffc565b3480156105c757600080fd5b50600a546001600160a01b03166102fa565b3480156105e557600080fd5b506102cd61102b565b3480156105fa57600080fd5b506011546102819062010000900460ff1681565b6102b661061c366004612501565b61103a565b34801561062d57600080fd5b506102b661063c36600461239a565b6112be565b34801561064d57600080fd5b506102b6611383565b34801561066257600080fd5b506102b661067136600461231e565b6113be565b34801561068257600080fd5b506102fa610691366004612501565b6113f6565b3480156106a257600080fd5b506102cd611420565b3480156106b757600080fd5b506102cd6106c6366004612501565b61142d565b3480156106d757600080fd5b5061035d600f5481565b3480156106ed57600080fd5b506102b66106fc3660046124b8565b6115ac565b34801561070d57600080fd5b5061028161071c3660046122af565b6001600160a01b03918216600090815260056020908152604080832093909416825291909152205460ff1690565b34801561075657600080fd5b506102b66107653660046123ee565b6115e9565b34801561077657600080fd5b506102b66107853660046124b8565b61162b565b34801561079657600080fd5b506102b66107a5366004612294565b611668565b60006001600160e01b0319821663780e9d6360e01b14806107cf57506107cf82611706565b92915050565b600a546001600160a01b031633146108085760405162461bcd60e51b81526004016107ff906126f0565b60405180910390fd5b6011805460ff1916911515919091179055565b60606000805461082a90612804565b80601f016020809104026020016040519081016040528092919081815260200182805461085690612804565b80156108a35780601f10610878576101008083540402835291602001916108a3565b820191906000526020600020905b81548152906001019060200180831161088657829003601f168201915b5050505050905090565b6000818152600260205260408120546001600160a01b03166109265760405162461bcd60e51b815260206004820152602c60248201527f4552433732313a20617070726f76656420717565727920666f72206e6f6e657860448201526b34b9ba32b73a103a37b5b2b760a11b60648201526084016107ff565b506000908152600460205260409020546001600160a01b031690565b600d805461094f90612804565b80601f016020809104026020016040519081016040528092919081815260200182805461097b90612804565b80156109c85780601f1061099d576101008083540402835291602001916109c8565b820191906000526020600020905b8154815290600101906020018083116109ab57829003601f168201915b505050505081565b60006109db82610ebb565b9050806001600160a01b0316836001600160a01b03161415610a495760405162461bcd60e51b815260206004820152602160248201527f4552433732313a20617070726f76616c20746f2063757272656e74206f776e656044820152603960f91b60648201526084016107ff565b336001600160a01b0382161480610a655750610a65813361071c565b610ad75760405162461bcd60e51b815260206004820152603860248201527f4552433732313a20617070726f76652063616c6c6572206973206e6f74206f7760448201527f6e6572206e6f7220617070726f76656420666f7220616c6c000000000000000060648201526084016107ff565b610ae18383611756565b505050565b610af033826117c4565b610b0c5760405162461bcd60e51b81526004016107ff90612725565b610ae18383836118bb565b6000610b2283610f3f565b8210610b845760405162461bcd60e51b815260206004820152602b60248201527f455243373231456e756d657261626c653a206f776e657220696e646578206f7560448201526a74206f6620626f756e647360a81b60648201526084016107ff565b506001600160a01b03919091166000908152600660209081526040808320938352929052205490565b6000805b601254811015610c0e57826001600160a01b031660128281548110610bd857610bd86128b0565b6000918252602090912001546001600160a01b03161415610bfc5750600192915050565b80610c068161283f565b915050610bb1565b50600092915050565b600a546001600160a01b03163314610c415760405162461bcd60e51b81526004016107ff906126f0565b60118054911515620100000262ff000019909216919091179055565b600a546001600160a01b03163314610c875760405162461bcd60e51b81526004016107ff906126f0565b6000610c9b600a546001600160a01b031690565b6001600160a01b03164760405160006040518083038185875af1925050503d8060008114610ce5576040519150601f19603f3d011682016040523d82523d6000602084013e610cea565b606091505b5050905080610cf857600080fd5b50565b610ae1838383604051806020016040528060008152506113be565b60606000610d2383610f3f565b905060008167ffffffffffffffff811115610d4057610d406128c6565b604051908082528060200260200182016040528015610d69578160200160208202803683370190505b50905060005b82811015610db057610d818582610b17565b828281518110610d9357610d936128b0565b602090810291909101015280610da88161283f565b915050610d6f565b509392505050565b600a546001600160a01b03163314610de25760405162461bcd60e51b81526004016107ff906126f0565b600e55565b6000610df260085490565b8210610e555760405162461bcd60e51b815260206004820152602c60248201527f455243373231456e756d657261626c653a20676c6f62616c20696e646578206f60448201526b7574206f6620626f756e647360a01b60648201526084016107ff565b60088281548110610e6857610e686128b0565b90600052602060002001549050919050565b600a546001600160a01b03163314610ea45760405162461bcd60e51b81526004016107ff906126f0565b8051610eb790600b9060208401906120e8565b5050565b6000818152600260205260408120546001600160a01b0316806107cf5760405162461bcd60e51b815260206004820152602960248201527f4552433732313a206f776e657220717565727920666f72206e6f6e657869737460448201526832b73a103a37b5b2b760b91b60648201526084016107ff565b600b805461094f90612804565b60006001600160a01b038216610faa5760405162461bcd60e51b815260206004820152602a60248201527f4552433732313a2062616c616e636520717565727920666f7220746865207a65604482015269726f206164647265737360b01b60648201526084016107ff565b506001600160a01b031660009081526003602052604090205490565b600a546001600160a01b03163314610ff05760405162461bcd60e51b81526004016107ff906126f0565b610ffa6000611a66565b565b600a546001600160a01b031633146110265760405162461bcd60e51b81526004016107ff906126f0565b601055565b60606001805461082a90612804565b60115460ff16156110865760405162461bcd60e51b81526020600482015260166024820152751d1a194818dbdb9d1c9858dd081a5cc81c185d5cd95960521b60448201526064016107ff565b600061109160085490565b9050600082116110e35760405162461bcd60e51b815260206004820152601b60248201527f6e65656420746f206d696e74206174206c656173742031204e4654000000000060448201526064016107ff565b6010548211156111415760405162461bcd60e51b8152602060048201526024808201527f6d6178206d696e7420616d6f756e74207065722073657373696f6e20657863656044820152631959195960e21b60648201526084016107ff565b600f5461114e8383612776565b11156111955760405162461bcd60e51b81526020600482015260166024820152751b585e08139195081b1a5b5a5d08195e18d95959195960521b60448201526064016107ff565b600a546001600160a01b0316331461126e5760115462010000900460ff1615156001141561121c576111c633610bad565b6112125760405162461bcd60e51b815260206004820152601760248201527f75736572206973206e6f742077686974656c697374656400000000000000000060448201526064016107ff565b3360005260136020525b81600e5461122a91906127a2565b34101561126e5760405162461bcd60e51b8152602060048201526012602482015271696e73756666696369656e742066756e647360701b60448201526064016107ff565b60015b828111610ae1573360009081526013602052604081208054916112938361283f565b909155506112ac9050336112a78385612776565b611ab8565b806112b68161283f565b915050611271565b6001600160a01b0382163314156113175760405162461bcd60e51b815260206004820152601960248201527f4552433732313a20617070726f766520746f2063616c6c65720000000000000060448201526064016107ff565b3360008181526005602090815260408083206001600160a01b03871680855290835292819020805460ff191686151590811790915590519081529192917f17307eab39ab6107e8899845ad3d59bd9653f200f220920489ca2b5937696c31910160405180910390a35050565b600a546001600160a01b031633146113ad5760405162461bcd60e51b81526004016107ff906126f0565b6011805461ff001916610100179055565b6113c833836117c4565b6113e45760405162461bcd60e51b81526004016107ff90612725565b6113f084848484611ad2565b50505050565b6012818154811061140657600080fd5b6000918252602090912001546001600160a01b0316905081565b600c805461094f90612804565b6000818152600260205260409020546060906001600160a01b03166114ac5760405162461bcd60e51b815260206004820152602f60248201527f4552433732314d657461646174613a2055524920717565727920666f72206e6f60448201526e3732bc34b9ba32b73a103a37b5b2b760891b60648201526084016107ff565b601154610100900460ff1661154d57600d80546114c890612804565b80601f01602080910402602001604051908101604052809291908181526020018280546114f490612804565b80156115415780601f1061151657610100808354040283529160200191611541565b820191906000526020600020905b81548152906001019060200180831161152457829003601f168201915b50505050509050919050565b6000611557611b05565b9050600081511161157757604051806020016040528060008152506115a5565b8061158184611b14565b600c60405160200161159593929190612546565b6040516020818303038152906040525b9392505050565b600a546001600160a01b031633146115d65760405162461bcd60e51b81526004016107ff906126f0565b8051610eb790600c9060208401906120e8565b600a546001600160a01b031633146116135760405162461bcd60e51b81526004016107ff906126f0565b61161f6012600061216c565b610ae16012838361218a565b600a546001600160a01b031633146116555760405162461bcd60e51b81526004016107ff906126f0565b8051610eb790600d9060208401906120e8565b600a546001600160a01b031633146116925760405162461bcd60e51b81526004016107ff906126f0565b6001600160a01b0381166116f75760405162461bcd60e51b815260206004820152602660248201527f4f776e61626c653a206e6577206f776e657220697320746865207a65726f206160448201526564647265737360d01b60648201526084016107ff565b610cf881611a66565b3b151590565b60006001600160e01b031982166380ac58cd60e01b148061173757506001600160e01b03198216635b5e139f60e01b145b806107cf57506301ffc9a760e01b6001600160e01b03198316146107cf565b600081815260046020526040902080546001600160a01b0319166001600160a01b038416908117909155819061178b82610ebb565b6001600160a01b03167f8c5be1e5ebec7d5bd14f71427d1e84f3dd0314c0f7b2291e5b200ac8c7c3b92560405160405180910390a45050565b6000818152600260205260408120546001600160a01b031661183d5760405162461bcd60e51b815260206004820152602c60248201527f4552433732313a206f70657261746f7220717565727920666f72206e6f6e657860448201526b34b9ba32b73a103a37b5b2b760a11b60648201526084016107ff565b600061184883610ebb565b9050806001600160a01b0316846001600160a01b031614806118835750836001600160a01b0316611878846108ad565b6001600160a01b0316145b806118b357506001600160a01b0380821660009081526005602090815260408083209388168352929052205460ff165b949350505050565b826001600160a01b03166118ce82610ebb565b6001600160a01b0316146119365760405162461bcd60e51b815260206004820152602960248201527f4552433732313a207472616e73666572206f6620746f6b656e2074686174206960448201526839903737ba1037bbb760b91b60648201526084016107ff565b6001600160a01b0382166119985760405162461bcd60e51b8152602060048201526024808201527f4552433732313a207472616e7366657220746f20746865207a65726f206164646044820152637265737360e01b60648201526084016107ff565b6119a3838383611c12565b6119ae600082611756565b6001600160a01b03831660009081526003602052604081208054600192906119d79084906127c1565b90915550506001600160a01b0382166000908152600360205260408120805460019290611a05908490612776565b909155505060008181526002602052604080822080546001600160a01b0319166001600160a01b0386811691821790925591518493918716917fddf252ad1be2c89b69c2b068fc378daa952ba7f163c4a11628f55a4df523b3ef91a4505050565b600a80546001600160a01b038381166001600160a01b0319831681179093556040519116919082907f8be0079c531659141344cd1fd0a4f28419497f9722a3daafe3b4186f6b6457e090600090a35050565b610eb7828260405180602001604052806000815250611cca565b611add8484846118bb565b611ae984848484611cfd565b6113f05760405162461bcd60e51b81526004016107ff9061269e565b6060600b805461082a90612804565b606081611b385750506040805180820190915260018152600360fc1b602082015290565b8160005b8115611b625780611b4c8161283f565b9150611b5b9050600a8361278e565b9150611b3c565b60008167ffffffffffffffff811115611b7d57611b7d6128c6565b6040519080825280601f01601f191660200182016040528015611ba7576020820181803683370190505b5090505b84156118b357611bbc6001836127c1565b9150611bc9600a8661285a565b611bd4906030612776565b60f81b818381518110611be957611be96128b0565b60200101906001600160f81b031916908160001a905350611c0b600a8661278e565b9450611bab565b6001600160a01b038316611c6d57611c6881600880546000838152600960205260408120829055600182018355919091527ff3f7a9fe364faab93b216da50a3214154f22a0a2b415b23a84c8169e8b636ee30155565b611c90565b816001600160a01b0316836001600160a01b031614611c9057611c908382611e0a565b6001600160a01b038216611ca757610ae181611ea7565b826001600160a01b0316826001600160a01b031614610ae157610ae18282611f56565b611cd48383611f9a565b611ce16000848484611cfd565b610ae15760405162461bcd60e51b81526004016107ff9061269e565b60006001600160a01b0384163b15611dff57604051630a85bd0160e11b81526001600160a01b0385169063150b7a0290611d4190339089908890889060040161260a565b602060405180830381600087803b158015611d5b57600080fd5b505af1925050508015611d8b575060408051601f3d908101601f19168201909252611d889181019061249b565b60015b611de5573d808015611db9576040519150601f19603f3d011682016040523d82523d6000602084013e611dbe565b606091505b508051611ddd5760405162461bcd60e51b81526004016107ff9061269e565b805181602001fd5b6001600160e01b031916630a85bd0160e11b1490506118b3565b506001949350505050565b60006001611e1784610f3f565b611e2191906127c1565b600083815260076020526040902054909150808214611e74576001600160a01b03841660009081526006602090815260408083208584528252808320548484528184208190558352600790915290208190555b5060009182526007602090815260408084208490556001600160a01b039094168352600681528383209183525290812055565b600854600090611eb9906001906127c1565b60008381526009602052604081205460088054939450909284908110611ee157611ee16128b0565b906000526020600020015490508060088381548110611f0257611f026128b0565b6000918252602080832090910192909255828152600990915260408082208490558582528120556008805480611f3a57611f3a61289a565b6001900381819060005260206000200160009055905550505050565b6000611f6183610f3f565b6001600160a01b039093166000908152600660209081526040808320868452825280832085905593825260079052919091209190915550565b6001600160a01b038216611ff05760405162461bcd60e51b815260206004820181905260248201527f4552433732313a206d696e7420746f20746865207a65726f206164647265737360448201526064016107ff565b6000818152600260205260409020546001600160a01b0316156120555760405162461bcd60e51b815260206004820152601c60248201527f4552433732313a20746f6b656e20616c7265616479206d696e7465640000000060448201526064016107ff565b61206160008383611c12565b6001600160a01b038216600090815260036020526040812080546001929061208a908490612776565b909155505060008181526002602052604080822080546001600160a01b0319166001600160a01b03861690811790915590518392907fddf252ad1be2c89b69c2b068fc378daa952ba7f163c4a11628f55a4df523b3ef908290a45050565b8280546120f490612804565b90600052602060002090601f016020900481019282612116576000855561215c565b82601f1061212f57805160ff191683800117855561215c565b8280016001018555821561215c579182015b8281111561215c578251825591602001919060010190612141565b506121689291506121dd565b5090565b5080546000825590600052602060002090810190610cf891906121dd565b82805482825590600052602060002090810192821561215c579160200282015b8281111561215c5781546001600160a01b0319166001600160a01b038435161782556020909201916001909101906121aa565b5b8082111561216857600081556001016121de565b600067ffffffffffffffff8084111561220d5761220d6128c6565b604051601f8501601f19908116603f01168101908282118183101715612235576122356128c6565b8160405280935085815286868601111561224e57600080fd5b858560208301376000602087830101525050509392505050565b80356001600160a01b038116811461227f57600080fd5b919050565b8035801515811461227f57600080fd5b6000602082840312156122a657600080fd5b6115a582612268565b600080604083850312156122c257600080fd5b6122cb83612268565b91506122d960208401612268565b90509250929050565b6000806000606084860312156122f757600080fd5b61230084612268565b925061230e60208501612268565b9150604084013590509250925092565b6000806000806080858703121561233457600080fd5b61233d85612268565b935061234b60208601612268565b925060408501359150606085013567ffffffffffffffff81111561236e57600080fd5b8501601f8101871361237f57600080fd5b61238e878235602084016121f2565b91505092959194509250565b600080604083850312156123ad57600080fd5b6123b683612268565b91506122d960208401612284565b600080604083850312156123d757600080fd5b6123e083612268565b946020939093013593505050565b6000806020838503121561240157600080fd5b823567ffffffffffffffff8082111561241957600080fd5b818501915085601f83011261242d57600080fd5b81358181111561243c57600080fd5b8660208260051b850101111561245157600080fd5b60209290920196919550909350505050565b60006020828403121561247557600080fd5b6115a582612284565b60006020828403121561249057600080fd5b81356115a5816128dc565b6000602082840312156124ad57600080fd5b81516115a5816128dc565b6000602082840312156124ca57600080fd5b813567ffffffffffffffff8111156124e157600080fd5b8201601f810184136124f257600080fd5b6118b3848235602084016121f2565b60006020828403121561251357600080fd5b5035919050565b600081518084526125328160208601602086016127d8565b601f01601f19169290920160200192915050565b6000845160206125598285838a016127d8565b85519184019161256c8184848a016127d8565b8554920191600090600181811c908083168061258957607f831692505b8583108114156125a757634e487b7160e01b85526022600452602485fd5b8080156125bb57600181146125cc576125f9565b60ff198516885283880195506125f9565b60008b81526020902060005b858110156125f15781548a8201529084019088016125d8565b505083880195505b50939b9a5050505050505050505050565b6001600160a01b038581168252841660208201526040810183905260806060820181905260009061263d9083018461251a565b9695505050505050565b6020808252825182820181905260009190848201906040850190845b8181101561267f57835183529284019291840191600101612663565b50909695505050505050565b6020815260006115a5602083018461251a565b60208082526032908201527f4552433732313a207472616e7366657220746f206e6f6e20455243373231526560408201527131b2b4bb32b91034b6b83632b6b2b73a32b960711b606082015260800190565b6020808252818101527f4f776e61626c653a2063616c6c6572206973206e6f7420746865206f776e6572604082015260600190565b60208082526031908201527f4552433732313a207472616e736665722063616c6c6572206973206e6f74206f6040820152701ddb995c881b9bdc88185c1c1c9bdd9959607a1b606082015260800190565b600082198211156127895761278961286e565b500190565b60008261279d5761279d612884565b500490565b60008160001904831182151516156127bc576127bc61286e565b500290565b6000828210156127d3576127d361286e565b500390565b60005b838110156127f35781810151838201526020016127db565b838111156113f05750506000910152565b600181811c9082168061281857607f821691505b6020821081141561283957634e487b7160e01b600052602260045260246000fd5b50919050565b60006000198214156128535761285361286e565b5060010190565b60008261286957612869612884565b500690565b634e487b7160e01b600052601160045260246000fd5b634e487b7160e01b600052601260045260246000fd5b634e487b7160e01b600052603160045260246000fd5b634e487b7160e01b600052603260045260246000fd5b634e487b7160e01b600052604160045260246000fd5b6001600160e01b031981168114610cf857600080fdfea264697066735822122018dad4ba4efa8930cbcc0a25788e06c6473d541e8b84c0029e79124033df6ccb64736f6c634300080700334552433732313a207472616e7366657220746f206e6f6e2045524337323152654f776e61626c653a2063616c6c6572206973206e6f7420746865206f776e6572",
  "immutableReferences": {},
  "source": "// SPDX-License-Identifier: GPL-3.0\n\n// Amended by HashLips\n/**\n    !Disclaimer!\n    These contracts have been used to create tutorials,\n    and was created for the purpose to teach people\n    how to create smart contracts on the blockchain.\n    please review this code on your own before using any of\n    the following code for production.\n    HashLips will not be liable in any way if for the use \n    of the code. That being said, the code has been tested \n    to the best of the developers' knowledge to work as intended.\n*/\n\npragma solidity >=0.7.0 <0.9.0;\n\nimport '@openzeppelin/contracts/token/ERC721/extensions/ERC721Enumerable.sol';\nimport '@openzeppelin/contracts/access/Ownable.sol';\n\ncontract GPCP is ERC721Enumerable, Ownable {\n    using Strings for uint256;\n\n    string public baseURI;\n    string public baseExtension = '.json';\n    string public notRevealedUri;\n    uint256 public cost = 0.015 ether;\n    uint256 public maxSupply = 5000;\n    uint256 public maxMintAmount = 20;\n    bool public paused = false;\n    bool public revealed = true;\n    bool public onlyWhitelisted = false;\n    address[] public whitelistedAddresses;\n    mapping(address => uint256) public addressMintedBalance;\n\n    constructor(\n        string memory _name,\n        string memory _symbol,\n        string memory _initBaseURI,\n        string memory _initNotRevealedUri\n    ) ERC721(_name, _symbol) {\n        setBaseURI(_initBaseURI);\n        setNotRevealedURI(_initNotRevealedUri);\n        _safeMint(msg.sender, 100); // 10 for the developers, 90 for prizes\n    }\n\n    // internal\n    function _baseURI() internal view virtual override returns (string memory) {\n        return baseURI;\n    }\n\n    // public\n    function mint(uint256 _mintAmount) public payable {\n        require(!paused, 'the contract is paused');\n        uint256 supply = totalSupply();\n        require(_mintAmount > 0, 'need to mint at least 1 NFT');\n        require(_mintAmount <= maxMintAmount, 'max mint amount per session exceeded');\n        require(supply + _mintAmount <= maxSupply, 'max NFT limit exceeded');\n\n        if (msg.sender != owner()) {\n            if (onlyWhitelisted == true) {\n                require(isWhitelisted(msg.sender), 'user is not whitelisted');\n                uint256 ownerMintedCount = addressMintedBalance[msg.sender];\n            }\n            require(msg.value >= cost * _mintAmount, 'insufficient funds');\n        }\n\n        for (uint256 i = 1; i <= _mintAmount; i++) {\n            addressMintedBalance[msg.sender]++;\n            _safeMint(msg.sender, supply + i);\n        }\n    }\n\n    function isWhitelisted(address _user) public view returns (bool) {\n        for (uint256 i = 0; i < whitelistedAddresses.length; i++) {\n            if (whitelistedAddresses[i] == _user) {\n                return true;\n            }\n        }\n        return false;\n    }\n\n    function walletOfOwner(address _owner) public view returns (uint256[] memory) {\n        uint256 ownerTokenCount = balanceOf(_owner);\n        uint256[] memory tokenIds = new uint256[](ownerTokenCount);\n        for (uint256 i; i < ownerTokenCount; i++) {\n            tokenIds[i] = tokenOfOwnerByIndex(_owner, i);\n        }\n        return tokenIds;\n    }\n\n    function tokenURI(uint256 tokenId) public view virtual override returns (string memory) {\n        require(_exists(tokenId), 'ERC721Metadata: URI query for nonexistent token');\n\n        if (revealed == false) {\n            return notRevealedUri;\n        }\n\n        string memory currentBaseURI = _baseURI();\n        return\n            bytes(currentBaseURI).length > 0\n                ? string(abi.encodePacked(currentBaseURI, tokenId.toString(), baseExtension))\n                : '';\n    }\n\n    //only owner\n    function reveal() public onlyOwner {\n        revealed = true;\n    }\n\n    function setCost(uint256 _newCost) public onlyOwner {\n        cost = _newCost;\n    }\n\n    function setmaxMintAmount(uint256 _newmaxMintAmount) public onlyOwner {\n        maxMintAmount = _newmaxMintAmount;\n    }\n\n    function setBaseURI(string memory _newBaseURI) public onlyOwner {\n        baseURI = _newBaseURI;\n    }\n\n    function setBaseExtension(string memory _newBaseExtension) public onlyOwner {\n        baseExtension = _newBaseExtension;\n    }\n\n    function setNotRevealedURI(string memory _notRevealedURI) public onlyOwner {\n        notRevealedUri = _notRevealedURI;\n    }\n\n    function pause(bool _state) public onlyOwner {\n        paused = _state;\n    }\n\n    function setOnlyWhitelisted(bool _state) public onlyOwner {\n        onlyWhitelisted = _state;\n    }\n\n    function whitelistUsers(address[] calldata _users) public onlyOwner {\n        delete whitelistedAddresses;\n        whitelistedAddresses = _users;\n    }\n\n    function withdraw() public payable onlyOwner {\n        // This will payout the owner 95% of the contract balance.\n        // Do not remove this otherwise you will not be able to withdraw the funds.\n        // =============================================================================\n        (bool os, ) = payable(owner()).call{value: address(this).balance}('');\n        require(os);\n        // =============================================================================\n    }\n}\n",
  "sourcePath": "C:/Users/James/projects/gpcp/blockchain/contracts/GPCP.sol",
  "compiler": {
    "name": "solc",
    "version": "0.8.7+commit.e28d00a7.Emscripten.clang"
  },
  "schemaVersion": "3.3.2",
  "updatedAt": "2022-07-13T15:19:55.821Z",
  "devdoc": {
    "kind": "dev",
    "methods": {
      "approve(address,uint256)": {
        "details": "See {IERC721-approve}."
      },
      "balanceOf(address)": {
        "details": "See {IERC721-balanceOf}."
      },
      "getApproved(uint256)": {
        "details": "See {IERC721-getApproved}."
      },
      "isApprovedForAll(address,address)": {
        "details": "See {IERC721-isApprovedForAll}."
      },
      "name()": {
        "details": "See {IERC721Metadata-name}."
      },
      "owner()": {
        "details": "Returns the address of the current owner."
      },
      "ownerOf(uint256)": {
        "details": "See {IERC721-ownerOf}."
      },
      "renounceOwnership()": {
        "details": "Leaves the contract without owner. It will not be possible to call `onlyOwner` functions anymore. Can only be called by the current owner. NOTE: Renouncing ownership will leave the contract without an owner, thereby removing any functionality that is only available to the owner."
      },
      "safeTransferFrom(address,address,uint256)": {
        "details": "See {IERC721-safeTransferFrom}."
      },
      "safeTransferFrom(address,address,uint256,bytes)": {
        "details": "See {IERC721-safeTransferFrom}."
      },
      "setApprovalForAll(address,bool)": {
        "details": "See {IERC721-setApprovalForAll}."
      },
      "supportsInterface(bytes4)": {
        "details": "See {IERC165-supportsInterface}."
      },
      "symbol()": {
        "details": "See {IERC721Metadata-symbol}."
      },
      "tokenByIndex(uint256)": {
        "details": "See {IERC721Enumerable-tokenByIndex}."
      },
      "tokenOfOwnerByIndex(address,uint256)": {
        "details": "See {IERC721Enumerable-tokenOfOwnerByIndex}."
      },
      "tokenURI(uint256)": {
        "details": "See {IERC721Metadata-tokenURI}."
      },
      "totalSupply()": {
        "details": "See {IERC721Enumerable-totalSupply}."
      },
      "transferFrom(address,address,uint256)": {
        "details": "See {IERC721-transferFrom}."
      },
      "transferOwnership(address)": {
        "details": "Transfers ownership of the contract to a new account (`newOwner`). Can only be called by the current owner."
      }
    },
    "version": 1
  },
  "userdoc": {
    "kind": "user",
    "methods": {},
    "version": 1
  }
}